{
	"example-code.sol": {
		"SupplyChain": {
			"abi": [
				{
					"anonymous": false,
					"inputs": [
						{
							"indexed": false,
							"internalType": "uint256",
							"name": "step",
							"type": "uint256"
						}
					],
					"name": "StepCreated",
					"type": "event"
				},
				{
					"constant": true,
					"inputs": [
						{
							"internalType": "uint256",
							"name": "_step",
							"type": "uint256"
						}
					],
					"name": "getprecedents",
					"outputs": [
						{
							"internalType": "uint256[]",
							"name": "",
							"type": "uint256[]"
						}
					],
					"payable": false,
					"stateMutability": "view",
					"type": "function"
				},
				{
					"constant": true,
					"inputs": [
						{
							"internalType": "uint256",
							"name": "_step",
							"type": "uint256"
						}
					],
					"name": "isLastStep",
					"outputs": [
						{
							"internalType": "bool",
							"name": "",
							"type": "bool"
						}
					],
					"payable": false,
					"stateMutability": "view",
					"type": "function"
				},
				{
					"constant": true,
					"inputs": [
						{
							"internalType": "uint256",
							"name": "",
							"type": "uint256"
						}
					],
					"name": "lastSteps",
					"outputs": [
						{
							"internalType": "uint256",
							"name": "",
							"type": "uint256"
						}
					],
					"payable": false,
					"stateMutability": "view",
					"type": "function"
				},
				{
					"constant": false,
					"inputs": [
						{
							"internalType": "uint256",
							"name": "_item",
							"type": "uint256"
						},
						{
							"internalType": "uint256[]",
							"name": "_precedents",
							"type": "uint256[]"
						}
					],
					"name": "newStep",
					"outputs": [
						{
							"internalType": "uint256",
							"name": "",
							"type": "uint256"
						}
					],
					"payable": false,
					"stateMutability": "nonpayable",
					"type": "function"
				},
				{
					"constant": true,
					"inputs": [
						{
							"internalType": "uint256",
							"name": "",
							"type": "uint256"
						}
					],
					"name": "steps",
					"outputs": [
						{
							"internalType": "address",
							"name": "creator",
							"type": "address"
						},
						{
							"internalType": "uint256",
							"name": "item",
							"type": "uint256"
						}
					],
					"payable": false,
					"stateMutability": "view",
					"type": "function"
				},
				{
					"constant": true,
					"inputs": [],
					"name": "totalSteps",
					"outputs": [
						{
							"internalType": "uint256",
							"name": "",
							"type": "uint256"
						}
					],
					"payable": false,
					"stateMutability": "view",
					"type": "function"
				}
			],
			"devdoc": {
				"author": "Alberto Cuesta Canada",
				"methods": {
					"getprecedents(uint256)": {
						"params": {
							"_step": "The step id of the step to retrieve precedents for."
						},
						"return": "An array with the step ids of the precedent steps."
					},
					"isLastStep(uint256)": {
						"params": {
							"_step": "The step id of the step to verify."
						},
						"return": "Whether a step is the last of an item."
					},
					"newStep(uint256,uint256[])": {
						"params": {
							"_item": "The item id that this step is for. This must be either the item of one of the steps in _precedents, or an id that has never been used before.",
							"_precedents": "An array of the step ids for steps considered to be predecessors to this one. Often this would  just mean that the event refers to the same asset as the event  pointed to, but for other steps it could point to other different assets."
						},
						"return": "The step id of the step created."
					}
				},
				"title": "Supply Chain"
			},
			"evm": {
				"assembly": "    /* \"example-code.sol\":157:3632  contract SupplyChain {\r... */\n  mstore(0x40, 0x80)\n  callvalue\n    /* \"--CODEGEN--\":8:17   */\n  dup1\n    /* \"--CODEGEN--\":5:7   */\n  iszero\n  tag_1\n  jumpi\n    /* \"--CODEGEN--\":30:31   */\n  0x00\n    /* \"--CODEGEN--\":27:28   */\n  dup1\n    /* \"--CODEGEN--\":20:32   */\n  revert\n    /* \"--CODEGEN--\":5:7   */\ntag_1:\n    /* \"example-code.sol\":157:3632  contract SupplyChain {\r... */\n  pop\n  dataSize(sub_0)\n  dup1\n  dataOffset(sub_0)\n  0x00\n  codecopy\n  0x00\n  return\nstop\n\nsub_0: assembly {\n        /* \"example-code.sol\":157:3632  contract SupplyChain {\r... */\n      mstore(0x40, 0x80)\n      callvalue\n        /* \"--CODEGEN--\":8:17   */\n      dup1\n        /* \"--CODEGEN--\":5:7   */\n      iszero\n      tag_1\n      jumpi\n        /* \"--CODEGEN--\":30:31   */\n      0x00\n        /* \"--CODEGEN--\":27:28   */\n      dup1\n        /* \"--CODEGEN--\":20:32   */\n      revert\n        /* \"--CODEGEN--\":5:7   */\n    tag_1:\n        /* \"example-code.sol\":157:3632  contract SupplyChain {\r... */\n      pop\n      jumpi(tag_2, lt(calldatasize, 0x04))\n      shr(0xe0, calldataload(0x00))\n      dup1\n      0x3b37986e\n      eq\n      tag_3\n      jumpi\n      dup1\n      0x5f63690c\n      eq\n      tag_4\n      jumpi\n      dup1\n      0x6931b3ae\n      eq\n      tag_5\n      jumpi\n      dup1\n      0x6f0e823d\n      eq\n      tag_6\n      jumpi\n      dup1\n      0x7217e0b9\n      eq\n      tag_7\n      jumpi\n      dup1\n      0x97add3a5\n      eq\n      tag_8\n      jumpi\n    tag_2:\n      0x00\n      dup1\n      revert\n        /* \"example-code.sol\":1207:1251  mapping(uint256 => uint256) public lastSteps */\n    tag_3:\n      tag_9\n      0x04\n      dup1\n      calldatasize\n      sub\n        /* \"--CODEGEN--\":13:15   */\n      0x20\n        /* \"--CODEGEN--\":8:11   */\n      dup2\n        /* \"--CODEGEN--\":5:16   */\n      lt\n        /* \"--CODEGEN--\":2:4   */\n      iszero\n      tag_10\n      jumpi\n        /* \"--CODEGEN--\":29:30   */\n      0x00\n        /* \"--CODEGEN--\":26:27   */\n      dup1\n        /* \"--CODEGEN--\":19:31   */\n      revert\n        /* \"--CODEGEN--\":2:4   */\n    tag_10:\n        /* \"example-code.sol\":1207:1251  mapping(uint256 => uint256) public lastSteps */\n      dup2\n      add\n      swap1\n      dup1\n      dup1\n      calldataload\n      swap1\n      0x20\n      add\n      swap1\n      swap3\n      swap2\n      swap1\n      pop\n      pop\n      pop\n      tag_11\n      jump\t// in\n    tag_9:\n      mload(0x40)\n      dup1\n      dup3\n      dup2\n      mstore\n      0x20\n      add\n      swap2\n      pop\n      pop\n      mload(0x40)\n      dup1\n      swap2\n      sub\n      swap1\n      return\n        /* \"example-code.sol\":1983:2893  function newStep(uint256 _item, uint256[] memory _precedents)\r... */\n    tag_4:\n      tag_12\n      0x04\n      dup1\n      calldatasize\n      sub\n        /* \"--CODEGEN--\":13:15   */\n      0x40\n        /* \"--CODEGEN--\":8:11   */\n      dup2\n        /* \"--CODEGEN--\":5:16   */\n      lt\n        /* \"--CODEGEN--\":2:4   */\n      iszero\n      tag_13\n      jumpi\n        /* \"--CODEGEN--\":29:30   */\n      0x00\n        /* \"--CODEGEN--\":26:27   */\n      dup1\n        /* \"--CODEGEN--\":19:31   */\n      revert\n        /* \"--CODEGEN--\":2:4   */\n    tag_13:\n        /* \"example-code.sol\":1983:2893  function newStep(uint256 _item, uint256[] memory _precedents)\r... */\n      dup2\n      add\n      swap1\n      dup1\n      dup1\n      calldataload\n      swap1\n      0x20\n      add\n      swap1\n      swap3\n      swap2\n      swap1\n      dup1\n      calldataload\n      swap1\n      0x20\n      add\n      swap1\n        /* \"--CODEGEN--\":21:32   */\n      0x0100000000\n        /* \"--CODEGEN--\":8:19   */\n      dup2\n        /* \"--CODEGEN--\":5:33   */\n      gt\n        /* \"--CODEGEN--\":2:4   */\n      iszero\n      tag_14\n      jumpi\n        /* \"--CODEGEN--\":46:47   */\n      0x00\n        /* \"--CODEGEN--\":43:44   */\n      dup1\n        /* \"--CODEGEN--\":36:48   */\n      revert\n        /* \"--CODEGEN--\":2:4   */\n    tag_14:\n        /* \"example-code.sol\":1983:2893  function newStep(uint256 _item, uint256[] memory _precedents)\r... */\n      dup3\n      add\n        /* \"--CODEGEN--\":35:44   */\n      dup4\n        /* \"--CODEGEN--\":28:32   */\n      0x20\n        /* \"--CODEGEN--\":12:26   */\n      dup3\n        /* \"--CODEGEN--\":8:33   */\n      add\n        /* \"--CODEGEN--\":5:45   */\n      gt\n        /* \"--CODEGEN--\":2:4   */\n      iszero\n      tag_15\n      jumpi\n        /* \"--CODEGEN--\":58:59   */\n      0x00\n        /* \"--CODEGEN--\":55:56   */\n      dup1\n        /* \"--CODEGEN--\":48:60   */\n      revert\n        /* \"--CODEGEN--\":2:4   */\n    tag_15:\n        /* \"example-code.sol\":1983:2893  function newStep(uint256 _item, uint256[] memory _precedents)\r... */\n      dup1\n      calldataload\n      swap1\n      0x20\n      add\n      swap2\n        /* \"--CODEGEN--\":101:110   */\n      dup5\n        /* \"--CODEGEN--\":95:97   */\n      0x20\n        /* \"--CODEGEN--\":81:93   */\n      dup4\n        /* \"--CODEGEN--\":77:98   */\n      mul\n        /* \"--CODEGEN--\":67:75   */\n      dup5\n        /* \"--CODEGEN--\":63:99   */\n      add\n        /* \"--CODEGEN--\":60:111   */\n      gt\n        /* \"--CODEGEN--\":39:50   */\n      0x0100000000\n        /* \"--CODEGEN--\":25:37   */\n      dup4\n        /* \"--CODEGEN--\":22:51   */\n      gt\n        /* \"--CODEGEN--\":11:119   */\n      or\n        /* \"--CODEGEN--\":8:10   */\n      iszero\n      tag_16\n      jumpi\n        /* \"--CODEGEN--\":132:133   */\n      0x00\n        /* \"--CODEGEN--\":129:130   */\n      dup1\n        /* \"--CODEGEN--\":122:134   */\n      revert\n        /* \"--CODEGEN--\":8:10   */\n    tag_16:\n        /* \"example-code.sol\":1983:2893  function newStep(uint256 _item, uint256[] memory _precedents)\r... */\n      swap2\n      swap1\n      dup1\n      dup1\n      0x20\n      mul\n      0x20\n      add\n      mload(0x40)\n      swap1\n      dup2\n      add\n      0x40\n      mstore\n      dup1\n      swap4\n      swap3\n      swap2\n      swap1\n      dup2\n      dup2\n      mstore\n      0x20\n      add\n      dup4\n      dup4\n      0x20\n      mul\n        /* \"--CODEGEN--\":30:33   */\n      dup1\n        /* \"--CODEGEN--\":22:28   */\n      dup3\n        /* \"--CODEGEN--\":14:20   */\n      dup5\n        /* \"--CODEGEN--\":1:34   */\n      calldatacopy\n        /* \"--CODEGEN--\":99:100   */\n      0x00\n        /* \"--CODEGEN--\":93:96   */\n      dup2\n        /* \"--CODEGEN--\":85:91   */\n      dup5\n        /* \"--CODEGEN--\":81:97   */\n      add\n        /* \"--CODEGEN--\":74:101   */\n      mstore\n        /* \"--CODEGEN--\":137:141   */\n      0x1f\n        /* \"--CODEGEN--\":133:142   */\n      not\n        /* \"--CODEGEN--\":126:130   */\n      0x1f\n        /* \"--CODEGEN--\":121:124   */\n      dup3\n        /* \"--CODEGEN--\":117:131   */\n      add\n        /* \"--CODEGEN--\":113:143   */\n      and\n        /* \"--CODEGEN--\":106:143   */\n      swap1\n      pop\n        /* \"--CODEGEN--\":169:172   */\n      dup1\n        /* \"--CODEGEN--\":161:167   */\n      dup4\n        /* \"--CODEGEN--\":157:173   */\n      add\n        /* \"--CODEGEN--\":147:173   */\n      swap3\n      pop\n        /* \"example-code.sol\":1983:2893  function newStep(uint256 _item, uint256[] memory _precedents)\r... */\n      pop\n      pop\n      pop\n      pop\n      pop\n      pop\n      swap2\n      swap3\n      swap2\n      swap3\n      swap1\n      pop\n      pop\n      pop\n      tag_17\n      jump\t// in\n    tag_12:\n      mload(0x40)\n      dup1\n      dup3\n      dup2\n      mstore\n      0x20\n      add\n      swap2\n      pop\n      pop\n      mload(0x40)\n      dup1\n      swap2\n      sub\n      swap1\n      return\n        /* \"example-code.sol\":1070:1095  uint256 public totalSteps */\n    tag_5:\n      tag_18\n      tag_19\n      jump\t// in\n    tag_18:\n      mload(0x40)\n      dup1\n      dup3\n      dup2\n      mstore\n      0x20\n      add\n      swap2\n      pop\n      pop\n      mload(0x40)\n      dup1\n      swap2\n      sub\n      swap1\n      return\n        /* \"example-code.sol\":3102:3252  function isLastStep(uint256 _step)\r... */\n    tag_6:\n      tag_20\n      0x04\n      dup1\n      calldatasize\n      sub\n        /* \"--CODEGEN--\":13:15   */\n      0x20\n        /* \"--CODEGEN--\":8:11   */\n      dup2\n        /* \"--CODEGEN--\":5:16   */\n      lt\n        /* \"--CODEGEN--\":2:4   */\n      iszero\n      tag_21\n      jumpi\n        /* \"--CODEGEN--\":29:30   */\n      0x00\n        /* \"--CODEGEN--\":26:27   */\n      dup1\n        /* \"--CODEGEN--\":19:31   */\n      revert\n        /* \"--CODEGEN--\":2:4   */\n    tag_21:\n        /* \"example-code.sol\":3102:3252  function isLastStep(uint256 _step)\r... */\n      dup2\n      add\n      swap1\n      dup1\n      dup1\n      calldataload\n      swap1\n      0x20\n      add\n      swap1\n      swap3\n      swap2\n      swap1\n      pop\n      pop\n      pop\n      tag_22\n      jump\t// in\n    tag_20:\n      mload(0x40)\n      dup1\n      dup3\n      iszero\n      iszero\n      iszero\n      iszero\n      dup2\n      mstore\n      0x20\n      add\n      swap2\n      pop\n      pop\n      mload(0x40)\n      dup1\n      swap2\n      sub\n      swap1\n      return\n        /* \"example-code.sol\":985:1022  mapping(uint256 => Step) public steps */\n    tag_7:\n      tag_23\n      0x04\n      dup1\n      calldatasize\n      sub\n        /* \"--CODEGEN--\":13:15   */\n      0x20\n        /* \"--CODEGEN--\":8:11   */\n      dup2\n        /* \"--CODEGEN--\":5:16   */\n      lt\n        /* \"--CODEGEN--\":2:4   */\n      iszero\n      tag_24\n      jumpi\n        /* \"--CODEGEN--\":29:30   */\n      0x00\n        /* \"--CODEGEN--\":26:27   */\n      dup1\n        /* \"--CODEGEN--\":19:31   */\n      revert\n        /* \"--CODEGEN--\":2:4   */\n    tag_24:\n        /* \"example-code.sol\":985:1022  mapping(uint256 => Step) public steps */\n      dup2\n      add\n      swap1\n      dup1\n      dup1\n      calldataload\n      swap1\n      0x20\n      add\n      swap1\n      swap3\n      swap2\n      swap1\n      pop\n      pop\n      pop\n      tag_25\n      jump\t// in\n    tag_23:\n      mload(0x40)\n      dup1\n      dup4\n      0xffffffffffffffffffffffffffffffffffffffff\n      and\n      0xffffffffffffffffffffffffffffffffffffffff\n      and\n      dup2\n      mstore\n      0x20\n      add\n      dup3\n      dup2\n      mstore\n      0x20\n      add\n      swap3\n      pop\n      pop\n      pop\n      mload(0x40)\n      dup1\n      swap2\n      sub\n      swap1\n      return\n        /* \"example-code.sol\":3478:3629  function getprecedents(uint256 _step)\r... */\n    tag_8:\n      tag_26\n      0x04\n      dup1\n      calldatasize\n      sub\n        /* \"--CODEGEN--\":13:15   */\n      0x20\n        /* \"--CODEGEN--\":8:11   */\n      dup2\n        /* \"--CODEGEN--\":5:16   */\n      lt\n        /* \"--CODEGEN--\":2:4   */\n      iszero\n      tag_27\n      jumpi\n        /* \"--CODEGEN--\":29:30   */\n      0x00\n        /* \"--CODEGEN--\":26:27   */\n      dup1\n        /* \"--CODEGEN--\":19:31   */\n      revert\n        /* \"--CODEGEN--\":2:4   */\n    tag_27:\n        /* \"example-code.sol\":3478:3629  function getprecedents(uint256 _step)\r... */\n      dup2\n      add\n      swap1\n      dup1\n      dup1\n      calldataload\n      swap1\n      0x20\n      add\n      swap1\n      swap3\n      swap2\n      swap1\n      pop\n      pop\n      pop\n      tag_28\n      jump\t// in\n    tag_26:\n      mload(0x40)\n      dup1\n      dup1\n      0x20\n      add\n      dup3\n      dup2\n      sub\n      dup3\n      mstore\n      dup4\n      dup2\n      dup2\n      mload\n      dup2\n      mstore\n      0x20\n      add\n      swap2\n      pop\n      dup1\n      mload\n      swap1\n      0x20\n      add\n      swap1\n      0x20\n      mul\n      dup1\n      dup4\n      dup4\n        /* \"--CODEGEN--\":23:24   */\n      0x00\n        /* \"--CODEGEN--\":8:108   */\n    tag_29:\n        /* \"--CODEGEN--\":33:36   */\n      dup4\n        /* \"--CODEGEN--\":30:31   */\n      dup2\n        /* \"--CODEGEN--\":27:37   */\n      lt\n        /* \"--CODEGEN--\":8:108   */\n      iszero\n      tag_31\n      jumpi\n        /* \"--CODEGEN--\":99:100   */\n      dup1\n        /* \"--CODEGEN--\":94:97   */\n      dup3\n        /* \"--CODEGEN--\":90:101   */\n      add\n        /* \"--CODEGEN--\":84:102   */\n      mload\n        /* \"--CODEGEN--\":80:81   */\n      dup2\n        /* \"--CODEGEN--\":75:78   */\n      dup5\n        /* \"--CODEGEN--\":71:82   */\n      add\n        /* \"--CODEGEN--\":64:103   */\n      mstore\n        /* \"--CODEGEN--\":52:54   */\n      0x20\n        /* \"--CODEGEN--\":49:50   */\n      dup2\n        /* \"--CODEGEN--\":45:55   */\n      add\n        /* \"--CODEGEN--\":40:55   */\n      swap1\n      pop\n        /* \"--CODEGEN--\":8:108   */\n      jump(tag_29)\n    tag_31:\n        /* \"--CODEGEN--\":12:26   */\n      pop\n        /* \"example-code.sol\":3478:3629  function getprecedents(uint256 _step)\r... */\n      pop\n      pop\n      pop\n      swap1\n      pop\n      add\n      swap3\n      pop\n      pop\n      pop\n      mload(0x40)\n      dup1\n      swap2\n      sub\n      swap1\n      return\n        /* \"example-code.sol\":1207:1251  mapping(uint256 => uint256) public lastSteps */\n    tag_11:\n      mstore(0x20, 0x02)\n      dup1\n      0x00\n      mstore\n      keccak256(0x00, 0x40)\n      0x00\n      swap2\n      pop\n      swap1\n      pop\n      sload\n      dup2\n      jump\t// out\n        /* \"example-code.sol\":1983:2893  function newStep(uint256 _item, uint256[] memory _precedents)\r... */\n    tag_17:\n        /* \"example-code.sol\":2076:2083  uint256 */\n      0x00\n        /* \"example-code.sol\":2104:2110  uint i */\n      dup1\n        /* \"example-code.sol\":2113:2114  0 */\n      0x00\n        /* \"example-code.sol\":2104:2114  uint i = 0 */\n      swap1\n      pop\n        /* \"example-code.sol\":2099:2281  for (uint i = 0; i < _precedents.length; i++){\r... */\n    tag_33:\n        /* \"example-code.sol\":2120:2131  _precedents */\n      dup3\n        /* \"example-code.sol\":2120:2138  _precedents.length */\n      mload\n        /* \"example-code.sol\":2116:2117  i */\n      dup2\n        /* \"example-code.sol\":2116:2138  i < _precedents.length */\n      lt\n        /* \"example-code.sol\":2099:2281  for (uint i = 0; i < _precedents.length; i++){\r... */\n      iszero\n      tag_34\n      jumpi\n        /* \"example-code.sol\":2183:2209  isLastStep(_precedents[i]) */\n      tag_36\n        /* \"example-code.sol\":2194:2205  _precedents */\n      dup4\n        /* \"example-code.sol\":2206:2207  i */\n      dup3\n        /* \"example-code.sol\":2194:2208  _precedents[i] */\n      dup2\n      mload\n      dup2\n      lt\n      tag_37\n      jumpi\n      invalid\n    tag_37:\n      0x20\n      mul\n      0x20\n      add\n      add\n      mload\n        /* \"example-code.sol\":2183:2193  isLastStep */\n      tag_22\n        /* \"example-code.sol\":2183:2209  isLastStep(_precedents[i]) */\n      jump\t// in\n    tag_36:\n        /* \"example-code.sol\":2158:2270  require(\r... */\n      tag_38\n      jumpi\n      mload(0x40)\n      0x08c379a000000000000000000000000000000000000000000000000000000000\n      dup2\n      mstore\n      0x04\n      add\n      dup1\n      dup1\n      0x20\n      add\n      dup3\n      dup2\n      sub\n      dup3\n      mstore\n      0x1a\n      dup2\n      mstore\n      0x20\n      add\n      dup1\n      0x417070656e64206f6e6c79206f6e206c6173742073746570732e000000000000\n      dup2\n      mstore\n      pop\n      0x20\n      add\n      swap2\n      pop\n      pop\n      mload(0x40)\n      dup1\n      swap2\n      sub\n      swap1\n      revert\n    tag_38:\n        /* \"example-code.sol\":2140:2143  i++ */\n      dup1\n      dup1\n      0x01\n      add\n      swap2\n      pop\n      pop\n        /* \"example-code.sol\":2099:2281  for (uint i = 0; i < _precedents.length; i++){\r... */\n      jump(tag_33)\n    tag_34:\n      pop\n        /* \"example-code.sol\":2290:2309  bool repeatInstance */\n      0x00\n        /* \"example-code.sol\":2312:2317  false */\n      dup1\n        /* \"example-code.sol\":2290:2317  bool repeatInstance = false */\n      swap1\n      pop\n        /* \"example-code.sol\":2332:2338  uint i */\n      0x00\n        /* \"example-code.sol\":2341:2342  0 */\n      dup1\n        /* \"example-code.sol\":2332:2342  uint i = 0 */\n      swap1\n      pop\n        /* \"example-code.sol\":2327:2514  for (uint i = 0; i < _precedents.length; i++){\r... */\n    tag_39:\n        /* \"example-code.sol\":2348:2359  _precedents */\n      dup4\n        /* \"example-code.sol\":2348:2366  _precedents.length */\n      mload\n        /* \"example-code.sol\":2344:2345  i */\n      dup2\n        /* \"example-code.sol\":2344:2366  i < _precedents.length */\n      lt\n        /* \"example-code.sol\":2327:2514  for (uint i = 0; i < _precedents.length; i++){\r... */\n      iszero\n      tag_40\n      jumpi\n        /* \"example-code.sol\":2420:2425  _item */\n      dup5\n        /* \"example-code.sol\":2390:2395  steps */\n      0x00\n        /* \"example-code.sol\":2390:2411  steps[_precedents[i]] */\n      dup1\n        /* \"example-code.sol\":2396:2407  _precedents */\n      dup7\n        /* \"example-code.sol\":2408:2409  i */\n      dup5\n        /* \"example-code.sol\":2396:2410  _precedents[i] */\n      dup2\n      mload\n      dup2\n      lt\n      tag_42\n      jumpi\n      invalid\n    tag_42:\n      0x20\n      mul\n      0x20\n      add\n      add\n      mload\n        /* \"example-code.sol\":2390:2411  steps[_precedents[i]] */\n      dup2\n      mstore\n      0x20\n      add\n      swap1\n      dup2\n      mstore\n      0x20\n      add\n      0x00\n      keccak256\n        /* \"example-code.sol\":2390:2416  steps[_precedents[i]].item */\n      0x01\n      add\n      sload\n        /* \"example-code.sol\":2390:2425  steps[_precedents[i]].item == _item */\n      eq\n        /* \"example-code.sol\":2386:2504  if (steps[_precedents[i]].item == _item) {\r... */\n      iszero\n      tag_43\n      jumpi\n        /* \"example-code.sol\":2462:2466  true */\n      0x01\n        /* \"example-code.sol\":2445:2466  repeatInstance = true */\n      swap2\n      pop\n        /* \"example-code.sol\":2484:2489  break */\n      jump(tag_40)\n        /* \"example-code.sol\":2386:2504  if (steps[_precedents[i]].item == _item) {\r... */\n    tag_43:\n        /* \"example-code.sol\":2368:2371  i++ */\n      dup1\n      dup1\n      0x01\n      add\n      swap2\n      pop\n      pop\n        /* \"example-code.sol\":2327:2514  for (uint i = 0; i < _precedents.length; i++){\r... */\n      jump(tag_39)\n    tag_40:\n      pop\n        /* \"example-code.sol\":2528:2542  repeatInstance */\n      dup1\n        /* \"example-code.sol\":2523:2621  if (!repeatInstance){\r... */\n      tag_44\n      jumpi\n        /* \"example-code.sol\":2585:2586  0 */\n      0x00\n        /* \"example-code.sol\":2565:2574  lastSteps */\n      0x02\n        /* \"example-code.sol\":2565:2581  lastSteps[_item] */\n      0x00\n        /* \"example-code.sol\":2575:2580  _item */\n      dup7\n        /* \"example-code.sol\":2565:2581  lastSteps[_item] */\n      dup2\n      mstore\n      0x20\n      add\n      swap1\n      dup2\n      mstore\n      0x20\n      add\n      0x00\n      keccak256\n      sload\n        /* \"example-code.sol\":2565:2586  lastSteps[_item] == 0 */\n      eq\n        /* \"example-code.sol\":2557:2610  require(lastSteps[_item] == 0, \"Instance not valid.\") */\n      tag_45\n      jumpi\n      mload(0x40)\n      0x08c379a000000000000000000000000000000000000000000000000000000000\n      dup2\n      mstore\n      0x04\n      add\n      dup1\n      dup1\n      0x20\n      add\n      dup3\n      dup2\n      sub\n      dup3\n      mstore\n      0x13\n      dup2\n      mstore\n      0x20\n      add\n      dup1\n      0x496e7374616e6365206e6f742076616c69642e00000000000000000000000000\n      dup2\n      mstore\n      pop\n      0x20\n      add\n      swap2\n      pop\n      pop\n      mload(0x40)\n      dup1\n      swap2\n      sub\n      swap1\n      revert\n    tag_45:\n        /* \"example-code.sol\":2523:2621  if (!repeatInstance){\r... */\n    tag_44:\n        /* \"example-code.sol\":2658:2740  Step(\r... */\n      mload(0x40)\n      dup1\n      0x60\n      add\n      0x40\n      mstore\n      dup1\n        /* \"example-code.sol\":2676:2686  msg.sender */\n      caller\n        /* \"example-code.sol\":2658:2740  Step(\r... */\n      0xffffffffffffffffffffffffffffffffffffffff\n      and\n      dup2\n      mstore\n      0x20\n      add\n        /* \"example-code.sol\":2700:2705  _item */\n      dup6\n        /* \"example-code.sol\":2658:2740  Step(\r... */\n      dup2\n      mstore\n      0x20\n      add\n        /* \"example-code.sol\":2719:2730  _precedents */\n      dup5\n        /* \"example-code.sol\":2658:2740  Step(\r... */\n      dup2\n      mstore\n      pop\n        /* \"example-code.sol\":2638:2643  steps */\n      0x00\n        /* \"example-code.sol\":2638:2655  steps[totalSteps] */\n      dup1\n        /* \"example-code.sol\":2644:2654  totalSteps */\n      sload(0x01)\n        /* \"example-code.sol\":2638:2655  steps[totalSteps] */\n      dup2\n      mstore\n      0x20\n      add\n      swap1\n      dup2\n      mstore\n      0x20\n      add\n      0x00\n      keccak256\n        /* \"example-code.sol\":2638:2740  steps[totalSteps] = Step(\r... */\n      0x00\n      dup3\n      add\n      mload\n      dup2\n      0x00\n      add\n      exp(0x0100, 0x00)\n      dup2\n      sload\n      dup2\n      0xffffffffffffffffffffffffffffffffffffffff\n      mul\n      not\n      and\n      swap1\n      dup4\n      0xffffffffffffffffffffffffffffffffffffffff\n      and\n      mul\n      or\n      swap1\n      sstore\n      pop\n      0x20\n      dup3\n      add\n      mload\n      dup2\n      0x01\n      add\n      sstore\n      0x40\n      dup3\n      add\n      mload\n      dup2\n      0x02\n      add\n      swap1\n      dup1\n      mload\n      swap1\n      0x20\n      add\n      swap1\n      tag_46\n      swap3\n      swap2\n      swap1\n      tag_47\n      jump\t// in\n    tag_46:\n      pop\n      swap1\n      pop\n      pop\n        /* \"example-code.sol\":2750:2762  uint256 step */\n      0x00\n        /* \"example-code.sol\":2765:2775  totalSteps */\n      sload(0x01)\n        /* \"example-code.sol\":2750:2775  uint256 step = totalSteps */\n      swap1\n      pop\n        /* \"example-code.sol\":2799:2800  1 */\n      0x01\n        /* \"example-code.sol\":2785:2795  totalSteps */\n      dup1\n      0x00\n        /* \"example-code.sol\":2785:2800  totalSteps += 1 */\n      dup3\n      dup3\n      sload\n      add\n      swap3\n      pop\n      pop\n      dup2\n      swap1\n      sstore\n      pop\n        /* \"example-code.sol\":2829:2833  step */\n      dup1\n        /* \"example-code.sol\":2810:2819  lastSteps */\n      0x02\n        /* \"example-code.sol\":2810:2826  lastSteps[_item] */\n      0x00\n        /* \"example-code.sol\":2820:2825  _item */\n      dup8\n        /* \"example-code.sol\":2810:2826  lastSteps[_item] */\n      dup2\n      mstore\n      0x20\n      add\n      swap1\n      dup2\n      mstore\n      0x20\n      add\n      0x00\n      keccak256\n        /* \"example-code.sol\":2810:2833  lastSteps[_item] = step */\n      dup2\n      swap1\n      sstore\n      pop\n        /* \"example-code.sol\":2848:2865  StepCreated(step) */\n      0xaaf69ffc30ad71be68c47171203a5feb746c3881d2dc180dbbac3893a57c6a44\n        /* \"example-code.sol\":2860:2864  step */\n      dup2\n        /* \"example-code.sol\":2848:2865  StepCreated(step) */\n      mload(0x40)\n      dup1\n      dup3\n      dup2\n      mstore\n      0x20\n      add\n      swap2\n      pop\n      pop\n      mload(0x40)\n      dup1\n      swap2\n      sub\n      swap1\n      log1\n        /* \"example-code.sol\":2882:2886  step */\n      dup1\n        /* \"example-code.sol\":2875:2886  return step */\n      swap3\n      pop\n      pop\n      pop\n        /* \"example-code.sol\":1983:2893  function newStep(uint256 _item, uint256[] memory _precedents)\r... */\n      swap3\n      swap2\n      pop\n      pop\n      jump\t// out\n        /* \"example-code.sol\":1070:1095  uint256 public totalSteps */\n    tag_19:\n      sload(0x01)\n      dup2\n      jump\t// out\n        /* \"example-code.sol\":3102:3252  function isLastStep(uint256 _step)\r... */\n    tag_22:\n        /* \"example-code.sol\":3181:3185  bool */\n      0x00\n        /* \"example-code.sol\":3240:3245  _step */\n      dup2\n        /* \"example-code.sol\":3208:3217  lastSteps */\n      0x02\n        /* \"example-code.sol\":3208:3236  lastSteps[steps[_step].item] */\n      0x00\n        /* \"example-code.sol\":3218:3223  steps */\n      dup1\n        /* \"example-code.sol\":3218:3230  steps[_step] */\n      0x00\n        /* \"example-code.sol\":3224:3229  _step */\n      dup7\n        /* \"example-code.sol\":3218:3230  steps[_step] */\n      dup2\n      mstore\n      0x20\n      add\n      swap1\n      dup2\n      mstore\n      0x20\n      add\n      0x00\n      keccak256\n        /* \"example-code.sol\":3218:3235  steps[_step].item */\n      0x01\n      add\n      sload\n        /* \"example-code.sol\":3208:3236  lastSteps[steps[_step].item] */\n      dup2\n      mstore\n      0x20\n      add\n      swap1\n      dup2\n      mstore\n      0x20\n      add\n      0x00\n      keccak256\n      sload\n        /* \"example-code.sol\":3208:3245  lastSteps[steps[_step].item] == _step */\n      eq\n        /* \"example-code.sol\":3201:3245  return lastSteps[steps[_step].item] == _step */\n      swap1\n      pop\n        /* \"example-code.sol\":3102:3252  function isLastStep(uint256 _step)\r... */\n      swap2\n      swap1\n      pop\n      jump\t// out\n        /* \"example-code.sol\":985:1022  mapping(uint256 => Step) public steps */\n    tag_25:\n      mstore(0x20, 0x00)\n      dup1\n      0x00\n      mstore\n      keccak256(0x00, 0x40)\n      0x00\n      swap2\n      pop\n      swap1\n      pop\n      dup1\n      0x00\n      add\n      0x00\n      swap1\n      sload\n      swap1\n      0x0100\n      exp\n      swap1\n      div\n      0xffffffffffffffffffffffffffffffffffffffff\n      and\n      swap1\n      dup1\n      0x01\n      add\n      sload\n      swap1\n      pop\n      dup3\n      jump\t// out\n        /* \"example-code.sol\":3478:3629  function getprecedents(uint256 _step)\r... */\n    tag_28:\n        /* \"example-code.sol\":3560:3576  uint256[] memory */\n      0x60\n        /* \"example-code.sol\":3599:3604  steps */\n      0x00\n        /* \"example-code.sol\":3599:3611  steps[_step] */\n      dup1\n        /* \"example-code.sol\":3605:3610  _step */\n      dup4\n        /* \"example-code.sol\":3599:3611  steps[_step] */\n      dup2\n      mstore\n      0x20\n      add\n      swap1\n      dup2\n      mstore\n      0x20\n      add\n      0x00\n      keccak256\n        /* \"example-code.sol\":3599:3622  steps[_step].precedents */\n      0x02\n      add\n        /* \"example-code.sol\":3592:3622  return steps[_step].precedents */\n      dup1\n      sload\n      dup1\n      0x20\n      mul\n      0x20\n      add\n      mload(0x40)\n      swap1\n      dup2\n      add\n      0x40\n      mstore\n      dup1\n      swap3\n      swap2\n      swap1\n      dup2\n      dup2\n      mstore\n      0x20\n      add\n      dup3\n      dup1\n      sload\n      dup1\n      iszero\n      tag_50\n      jumpi\n      0x20\n      mul\n      dup3\n      add\n      swap2\n      swap1\n      0x00\n      mstore\n      keccak256(0x00, 0x20)\n      swap1\n    tag_51:\n      dup2\n      sload\n      dup2\n      mstore\n      0x20\n      add\n      swap1\n      0x01\n      add\n      swap1\n      dup1\n      dup4\n      gt\n      tag_51\n      jumpi\n    tag_50:\n      pop\n      pop\n      pop\n      pop\n      pop\n      swap1\n      pop\n        /* \"example-code.sol\":3478:3629  function getprecedents(uint256 _step)\r... */\n      swap2\n      swap1\n      pop\n      jump\t// out\n        /* \"example-code.sol\":157:3632  contract SupplyChain {\r... */\n    tag_47:\n      dup3\n      dup1\n      sload\n      dup3\n      dup3\n      sstore\n      swap1\n      0x00\n      mstore\n      keccak256(0x00, 0x20)\n      swap1\n      dup2\n      add\n      swap3\n      dup3\n      iszero\n      tag_52\n      jumpi\n      swap2\n      0x20\n      mul\n      dup3\n      add\n    tag_53:\n      dup3\n      dup2\n      gt\n      iszero\n      tag_54\n      jumpi\n      dup3\n      mload\n      dup3\n      sstore\n      swap2\n      0x20\n      add\n      swap2\n      swap1\n      0x01\n      add\n      swap1\n      jump(tag_53)\n    tag_54:\n    tag_52:\n      pop\n      swap1\n      pop\n      tag_55\n      swap2\n      swap1\n      tag_56\n      jump\t// in\n    tag_55:\n      pop\n      swap1\n      jump\t// out\n    tag_56:\n      tag_57\n      swap2\n      swap1\n    tag_58:\n      dup1\n      dup3\n      gt\n      iszero\n      tag_59\n      jumpi\n      0x00\n      dup2\n      0x00\n      swap1\n      sstore\n      pop\n      0x01\n      add\n      jump(tag_58)\n    tag_59:\n      pop\n      swap1\n      jump\n    tag_57:\n      swap1\n      jump\t// out\n\n    auxdata: 0xa265627a7a72315820d7ded059766b80fa01b390d27425d6e3181709e786dbbb0117fc81511881ed8664736f6c63430005110032\n}\n",
				"bytecode": {
					"linkReferences": {},
					"object": "608060405234801561001057600080fd5b50610743806100206000396000f3fe608060405234801561001057600080fd5b50600436106100625760003560e01c80633b37986e146100675780635f63690c146100a95780636931b3ae1461017f5780636f0e823d1461019d5780637217e0b9146101e357806397add3a514610258575b600080fd5b6100936004803603602081101561007d57600080fd5b81019080803590602001909291905050506102db565b6040518082815260200191505060405180910390f35b610169600480360360408110156100bf57600080fd5b8101908080359060200190929190803590602001906401000000008111156100e657600080fd5b8201836020820111156100f857600080fd5b8035906020019184602083028401116401000000008311171561011a57600080fd5b919080806020026020016040519081016040528093929190818152602001838360200280828437600081840152601f19601f8201169050808301925050505050505091929192905050506102f3565b6040518082815260200191505060405180910390f35b6101876105b1565b6040518082815260200191505060405180910390f35b6101c9600480360360208110156101b357600080fd5b81019080803590602001909291905050506105b7565b604051808215151515815260200191505060405180910390f35b61020f600480360360208110156101f957600080fd5b81019080803590602001909291905050506105eb565b604051808373ffffffffffffffffffffffffffffffffffffffff1673ffffffffffffffffffffffffffffffffffffffff1681526020018281526020019250505060405180910390f35b6102846004803603602081101561026e57600080fd5b810190808035906020019092919050505061062f565b6040518080602001828103825283818151815260200191508051906020019060200280838360005b838110156102c75780820151818401526020810190506102ac565b505050509050019250505060405180910390f35b60026020528060005260406000206000915090505481565b600080600090505b825181101561039f5761032083828151811061031357fe5b60200260200101516105b7565b610392576040517f08c379a000000000000000000000000000000000000000000000000000000000815260040180806020018281038252601a8152602001807f417070656e64206f6e6c79206f6e206c6173742073746570732e00000000000081525060200191505060405180910390fd5b80806001019150506102fb565b50600080905060008090505b83518110156103fa57846000808684815181106103c457fe5b602002602001015181526020019081526020016000206001015414156103ed57600191506103fa565b80806001019150506103ab565b508061048a576000600260008681526020019081526020016000205414610489576040517f08c379a00000000000000000000000000000000000000000000000000000000081526004018080602001828103825260138152602001807f496e7374616e6365206e6f742076616c69642e0000000000000000000000000081525060200191505060405180910390fd5b5b60405180606001604052803373ffffffffffffffffffffffffffffffffffffffff16815260200185815260200184815250600080600154815260200190815260200160002060008201518160000160006101000a81548173ffffffffffffffffffffffffffffffffffffffff021916908373ffffffffffffffffffffffffffffffffffffffff16021790555060208201518160010155604082015181600201908051906020019061053c92919061069c565b5090505060006001549050600180600082825401925050819055508060026000878152602001908152602001600020819055507faaf69ffc30ad71be68c47171203a5feb746c3881d2dc180dbbac3893a57c6a44816040518082815260200191505060405180910390a1809250505092915050565b60015481565b6000816002600080600086815260200190815260200160002060010154815260200190815260200160002054149050919050565b60006020528060005260406000206000915090508060000160009054906101000a900473ffffffffffffffffffffffffffffffffffffffff16908060010154905082565b606060008083815260200190815260200160002060020180548060200260200160405190810160405280929190818152602001828054801561069057602002820191906000526020600020905b81548152602001906001019080831161067c575b50505050509050919050565b8280548282559060005260206000209081019282156106d8579160200282015b828111156106d75782518255916020019190600101906106bc565b5b5090506106e591906106e9565b5090565b61070b91905b808211156107075760008160009055506001016106ef565b5090565b9056fea265627a7a72315820d7ded059766b80fa01b390d27425d6e3181709e786dbbb0117fc81511881ed8664736f6c63430005110032",
					"opcodes": "PUSH1 0x80 PUSH1 0x40 MSTORE CALLVALUE DUP1 ISZERO PUSH2 0x10 JUMPI PUSH1 0x0 DUP1 REVERT JUMPDEST POP PUSH2 0x743 DUP1 PUSH2 0x20 PUSH1 0x0 CODECOPY PUSH1 0x0 RETURN INVALID PUSH1 0x80 PUSH1 0x40 MSTORE CALLVALUE DUP1 ISZERO PUSH2 0x10 JUMPI PUSH1 0x0 DUP1 REVERT JUMPDEST POP PUSH1 0x4 CALLDATASIZE LT PUSH2 0x62 JUMPI PUSH1 0x0 CALLDATALOAD PUSH1 0xE0 SHR DUP1 PUSH4 0x3B37986E EQ PUSH2 0x67 JUMPI DUP1 PUSH4 0x5F63690C EQ PUSH2 0xA9 JUMPI DUP1 PUSH4 0x6931B3AE EQ PUSH2 0x17F JUMPI DUP1 PUSH4 0x6F0E823D EQ PUSH2 0x19D JUMPI DUP1 PUSH4 0x7217E0B9 EQ PUSH2 0x1E3 JUMPI DUP1 PUSH4 0x97ADD3A5 EQ PUSH2 0x258 JUMPI JUMPDEST PUSH1 0x0 DUP1 REVERT JUMPDEST PUSH2 0x93 PUSH1 0x4 DUP1 CALLDATASIZE SUB PUSH1 0x20 DUP2 LT ISZERO PUSH2 0x7D JUMPI PUSH1 0x0 DUP1 REVERT JUMPDEST DUP2 ADD SWAP1 DUP1 DUP1 CALLDATALOAD SWAP1 PUSH1 0x20 ADD SWAP1 SWAP3 SWAP2 SWAP1 POP POP POP PUSH2 0x2DB JUMP JUMPDEST PUSH1 0x40 MLOAD DUP1 DUP3 DUP2 MSTORE PUSH1 0x20 ADD SWAP2 POP POP PUSH1 0x40 MLOAD DUP1 SWAP2 SUB SWAP1 RETURN JUMPDEST PUSH2 0x169 PUSH1 0x4 DUP1 CALLDATASIZE SUB PUSH1 0x40 DUP2 LT ISZERO PUSH2 0xBF JUMPI PUSH1 0x0 DUP1 REVERT JUMPDEST DUP2 ADD SWAP1 DUP1 DUP1 CALLDATALOAD SWAP1 PUSH1 0x20 ADD SWAP1 SWAP3 SWAP2 SWAP1 DUP1 CALLDATALOAD SWAP1 PUSH1 0x20 ADD SWAP1 PUSH5 0x100000000 DUP2 GT ISZERO PUSH2 0xE6 JUMPI PUSH1 0x0 DUP1 REVERT JUMPDEST DUP3 ADD DUP4 PUSH1 0x20 DUP3 ADD GT ISZERO PUSH2 0xF8 JUMPI PUSH1 0x0 DUP1 REVERT JUMPDEST DUP1 CALLDATALOAD SWAP1 PUSH1 0x20 ADD SWAP2 DUP5 PUSH1 0x20 DUP4 MUL DUP5 ADD GT PUSH5 0x100000000 DUP4 GT OR ISZERO PUSH2 0x11A JUMPI PUSH1 0x0 DUP1 REVERT JUMPDEST SWAP2 SWAP1 DUP1 DUP1 PUSH1 0x20 MUL PUSH1 0x20 ADD PUSH1 0x40 MLOAD SWAP1 DUP2 ADD PUSH1 0x40 MSTORE DUP1 SWAP4 SWAP3 SWAP2 SWAP1 DUP2 DUP2 MSTORE PUSH1 0x20 ADD DUP4 DUP4 PUSH1 0x20 MUL DUP1 DUP3 DUP5 CALLDATACOPY PUSH1 0x0 DUP2 DUP5 ADD MSTORE PUSH1 0x1F NOT PUSH1 0x1F DUP3 ADD AND SWAP1 POP DUP1 DUP4 ADD SWAP3 POP POP POP POP POP POP POP SWAP2 SWAP3 SWAP2 SWAP3 SWAP1 POP POP POP PUSH2 0x2F3 JUMP JUMPDEST PUSH1 0x40 MLOAD DUP1 DUP3 DUP2 MSTORE PUSH1 0x20 ADD SWAP2 POP POP PUSH1 0x40 MLOAD DUP1 SWAP2 SUB SWAP1 RETURN JUMPDEST PUSH2 0x187 PUSH2 0x5B1 JUMP JUMPDEST PUSH1 0x40 MLOAD DUP1 DUP3 DUP2 MSTORE PUSH1 0x20 ADD SWAP2 POP POP PUSH1 0x40 MLOAD DUP1 SWAP2 SUB SWAP1 RETURN JUMPDEST PUSH2 0x1C9 PUSH1 0x4 DUP1 CALLDATASIZE SUB PUSH1 0x20 DUP2 LT ISZERO PUSH2 0x1B3 JUMPI PUSH1 0x0 DUP1 REVERT JUMPDEST DUP2 ADD SWAP1 DUP1 DUP1 CALLDATALOAD SWAP1 PUSH1 0x20 ADD SWAP1 SWAP3 SWAP2 SWAP1 POP POP POP PUSH2 0x5B7 JUMP JUMPDEST PUSH1 0x40 MLOAD DUP1 DUP3 ISZERO ISZERO ISZERO ISZERO DUP2 MSTORE PUSH1 0x20 ADD SWAP2 POP POP PUSH1 0x40 MLOAD DUP1 SWAP2 SUB SWAP1 RETURN JUMPDEST PUSH2 0x20F PUSH1 0x4 DUP1 CALLDATASIZE SUB PUSH1 0x20 DUP2 LT ISZERO PUSH2 0x1F9 JUMPI PUSH1 0x0 DUP1 REVERT JUMPDEST DUP2 ADD SWAP1 DUP1 DUP1 CALLDATALOAD SWAP1 PUSH1 0x20 ADD SWAP1 SWAP3 SWAP2 SWAP1 POP POP POP PUSH2 0x5EB JUMP JUMPDEST PUSH1 0x40 MLOAD DUP1 DUP4 PUSH20 0xFFFFFFFFFFFFFFFFFFFFFFFFFFFFFFFFFFFFFFFF AND PUSH20 0xFFFFFFFFFFFFFFFFFFFFFFFFFFFFFFFFFFFFFFFF AND DUP2 MSTORE PUSH1 0x20 ADD DUP3 DUP2 MSTORE PUSH1 0x20 ADD SWAP3 POP POP POP PUSH1 0x40 MLOAD DUP1 SWAP2 SUB SWAP1 RETURN JUMPDEST PUSH2 0x284 PUSH1 0x4 DUP1 CALLDATASIZE SUB PUSH1 0x20 DUP2 LT ISZERO PUSH2 0x26E JUMPI PUSH1 0x0 DUP1 REVERT JUMPDEST DUP2 ADD SWAP1 DUP1 DUP1 CALLDATALOAD SWAP1 PUSH1 0x20 ADD SWAP1 SWAP3 SWAP2 SWAP1 POP POP POP PUSH2 0x62F JUMP JUMPDEST PUSH1 0x40 MLOAD DUP1 DUP1 PUSH1 0x20 ADD DUP3 DUP2 SUB DUP3 MSTORE DUP4 DUP2 DUP2 MLOAD DUP2 MSTORE PUSH1 0x20 ADD SWAP2 POP DUP1 MLOAD SWAP1 PUSH1 0x20 ADD SWAP1 PUSH1 0x20 MUL DUP1 DUP4 DUP4 PUSH1 0x0 JUMPDEST DUP4 DUP2 LT ISZERO PUSH2 0x2C7 JUMPI DUP1 DUP3 ADD MLOAD DUP2 DUP5 ADD MSTORE PUSH1 0x20 DUP2 ADD SWAP1 POP PUSH2 0x2AC JUMP JUMPDEST POP POP POP POP SWAP1 POP ADD SWAP3 POP POP POP PUSH1 0x40 MLOAD DUP1 SWAP2 SUB SWAP1 RETURN JUMPDEST PUSH1 0x2 PUSH1 0x20 MSTORE DUP1 PUSH1 0x0 MSTORE PUSH1 0x40 PUSH1 0x0 KECCAK256 PUSH1 0x0 SWAP2 POP SWAP1 POP SLOAD DUP2 JUMP JUMPDEST PUSH1 0x0 DUP1 PUSH1 0x0 SWAP1 POP JUMPDEST DUP3 MLOAD DUP2 LT ISZERO PUSH2 0x39F JUMPI PUSH2 0x320 DUP4 DUP3 DUP2 MLOAD DUP2 LT PUSH2 0x313 JUMPI INVALID JUMPDEST PUSH1 0x20 MUL PUSH1 0x20 ADD ADD MLOAD PUSH2 0x5B7 JUMP JUMPDEST PUSH2 0x392 JUMPI PUSH1 0x40 MLOAD PUSH32 0x8C379A000000000000000000000000000000000000000000000000000000000 DUP2 MSTORE PUSH1 0x4 ADD DUP1 DUP1 PUSH1 0x20 ADD DUP3 DUP2 SUB DUP3 MSTORE PUSH1 0x1A DUP2 MSTORE PUSH1 0x20 ADD DUP1 PUSH32 0x417070656E64206F6E6C79206F6E206C6173742073746570732E000000000000 DUP2 MSTORE POP PUSH1 0x20 ADD SWAP2 POP POP PUSH1 0x40 MLOAD DUP1 SWAP2 SUB SWAP1 REVERT JUMPDEST DUP1 DUP1 PUSH1 0x1 ADD SWAP2 POP POP PUSH2 0x2FB JUMP JUMPDEST POP PUSH1 0x0 DUP1 SWAP1 POP PUSH1 0x0 DUP1 SWAP1 POP JUMPDEST DUP4 MLOAD DUP2 LT ISZERO PUSH2 0x3FA JUMPI DUP5 PUSH1 0x0 DUP1 DUP7 DUP5 DUP2 MLOAD DUP2 LT PUSH2 0x3C4 JUMPI INVALID JUMPDEST PUSH1 0x20 MUL PUSH1 0x20 ADD ADD MLOAD DUP2 MSTORE PUSH1 0x20 ADD SWAP1 DUP2 MSTORE PUSH1 0x20 ADD PUSH1 0x0 KECCAK256 PUSH1 0x1 ADD SLOAD EQ ISZERO PUSH2 0x3ED JUMPI PUSH1 0x1 SWAP2 POP PUSH2 0x3FA JUMP JUMPDEST DUP1 DUP1 PUSH1 0x1 ADD SWAP2 POP POP PUSH2 0x3AB JUMP JUMPDEST POP DUP1 PUSH2 0x48A JUMPI PUSH1 0x0 PUSH1 0x2 PUSH1 0x0 DUP7 DUP2 MSTORE PUSH1 0x20 ADD SWAP1 DUP2 MSTORE PUSH1 0x20 ADD PUSH1 0x0 KECCAK256 SLOAD EQ PUSH2 0x489 JUMPI PUSH1 0x40 MLOAD PUSH32 0x8C379A000000000000000000000000000000000000000000000000000000000 DUP2 MSTORE PUSH1 0x4 ADD DUP1 DUP1 PUSH1 0x20 ADD DUP3 DUP2 SUB DUP3 MSTORE PUSH1 0x13 DUP2 MSTORE PUSH1 0x20 ADD DUP1 PUSH32 0x496E7374616E6365206E6F742076616C69642E00000000000000000000000000 DUP2 MSTORE POP PUSH1 0x20 ADD SWAP2 POP POP PUSH1 0x40 MLOAD DUP1 SWAP2 SUB SWAP1 REVERT JUMPDEST JUMPDEST PUSH1 0x40 MLOAD DUP1 PUSH1 0x60 ADD PUSH1 0x40 MSTORE DUP1 CALLER PUSH20 0xFFFFFFFFFFFFFFFFFFFFFFFFFFFFFFFFFFFFFFFF AND DUP2 MSTORE PUSH1 0x20 ADD DUP6 DUP2 MSTORE PUSH1 0x20 ADD DUP5 DUP2 MSTORE POP PUSH1 0x0 DUP1 PUSH1 0x1 SLOAD DUP2 MSTORE PUSH1 0x20 ADD SWAP1 DUP2 MSTORE PUSH1 0x20 ADD PUSH1 0x0 KECCAK256 PUSH1 0x0 DUP3 ADD MLOAD DUP2 PUSH1 0x0 ADD PUSH1 0x0 PUSH2 0x100 EXP DUP2 SLOAD DUP2 PUSH20 0xFFFFFFFFFFFFFFFFFFFFFFFFFFFFFFFFFFFFFFFF MUL NOT AND SWAP1 DUP4 PUSH20 0xFFFFFFFFFFFFFFFFFFFFFFFFFFFFFFFFFFFFFFFF AND MUL OR SWAP1 SSTORE POP PUSH1 0x20 DUP3 ADD MLOAD DUP2 PUSH1 0x1 ADD SSTORE PUSH1 0x40 DUP3 ADD MLOAD DUP2 PUSH1 0x2 ADD SWAP1 DUP1 MLOAD SWAP1 PUSH1 0x20 ADD SWAP1 PUSH2 0x53C SWAP3 SWAP2 SWAP1 PUSH2 0x69C JUMP JUMPDEST POP SWAP1 POP POP PUSH1 0x0 PUSH1 0x1 SLOAD SWAP1 POP PUSH1 0x1 DUP1 PUSH1 0x0 DUP3 DUP3 SLOAD ADD SWAP3 POP POP DUP2 SWAP1 SSTORE POP DUP1 PUSH1 0x2 PUSH1 0x0 DUP8 DUP2 MSTORE PUSH1 0x20 ADD SWAP1 DUP2 MSTORE PUSH1 0x20 ADD PUSH1 0x0 KECCAK256 DUP2 SWAP1 SSTORE POP PUSH32 0xAAF69FFC30AD71BE68C47171203A5FEB746C3881D2DC180DBBAC3893A57C6A44 DUP2 PUSH1 0x40 MLOAD DUP1 DUP3 DUP2 MSTORE PUSH1 0x20 ADD SWAP2 POP POP PUSH1 0x40 MLOAD DUP1 SWAP2 SUB SWAP1 LOG1 DUP1 SWAP3 POP POP POP SWAP3 SWAP2 POP POP JUMP JUMPDEST PUSH1 0x1 SLOAD DUP2 JUMP JUMPDEST PUSH1 0x0 DUP2 PUSH1 0x2 PUSH1 0x0 DUP1 PUSH1 0x0 DUP7 DUP2 MSTORE PUSH1 0x20 ADD SWAP1 DUP2 MSTORE PUSH1 0x20 ADD PUSH1 0x0 KECCAK256 PUSH1 0x1 ADD SLOAD DUP2 MSTORE PUSH1 0x20 ADD SWAP1 DUP2 MSTORE PUSH1 0x20 ADD PUSH1 0x0 KECCAK256 SLOAD EQ SWAP1 POP SWAP2 SWAP1 POP JUMP JUMPDEST PUSH1 0x0 PUSH1 0x20 MSTORE DUP1 PUSH1 0x0 MSTORE PUSH1 0x40 PUSH1 0x0 KECCAK256 PUSH1 0x0 SWAP2 POP SWAP1 POP DUP1 PUSH1 0x0 ADD PUSH1 0x0 SWAP1 SLOAD SWAP1 PUSH2 0x100 EXP SWAP1 DIV PUSH20 0xFFFFFFFFFFFFFFFFFFFFFFFFFFFFFFFFFFFFFFFF AND SWAP1 DUP1 PUSH1 0x1 ADD SLOAD SWAP1 POP DUP3 JUMP JUMPDEST PUSH1 0x60 PUSH1 0x0 DUP1 DUP4 DUP2 MSTORE PUSH1 0x20 ADD SWAP1 DUP2 MSTORE PUSH1 0x20 ADD PUSH1 0x0 KECCAK256 PUSH1 0x2 ADD DUP1 SLOAD DUP1 PUSH1 0x20 MUL PUSH1 0x20 ADD PUSH1 0x40 MLOAD SWAP1 DUP2 ADD PUSH1 0x40 MSTORE DUP1 SWAP3 SWAP2 SWAP1 DUP2 DUP2 MSTORE PUSH1 0x20 ADD DUP3 DUP1 SLOAD DUP1 ISZERO PUSH2 0x690 JUMPI PUSH1 0x20 MUL DUP3 ADD SWAP2 SWAP1 PUSH1 0x0 MSTORE PUSH1 0x20 PUSH1 0x0 KECCAK256 SWAP1 JUMPDEST DUP2 SLOAD DUP2 MSTORE PUSH1 0x20 ADD SWAP1 PUSH1 0x1 ADD SWAP1 DUP1 DUP4 GT PUSH2 0x67C JUMPI JUMPDEST POP POP POP POP POP SWAP1 POP SWAP2 SWAP1 POP JUMP JUMPDEST DUP3 DUP1 SLOAD DUP3 DUP3 SSTORE SWAP1 PUSH1 0x0 MSTORE PUSH1 0x20 PUSH1 0x0 KECCAK256 SWAP1 DUP2 ADD SWAP3 DUP3 ISZERO PUSH2 0x6D8 JUMPI SWAP2 PUSH1 0x20 MUL DUP3 ADD JUMPDEST DUP3 DUP2 GT ISZERO PUSH2 0x6D7 JUMPI DUP3 MLOAD DUP3 SSTORE SWAP2 PUSH1 0x20 ADD SWAP2 SWAP1 PUSH1 0x1 ADD SWAP1 PUSH2 0x6BC JUMP JUMPDEST JUMPDEST POP SWAP1 POP PUSH2 0x6E5 SWAP2 SWAP1 PUSH2 0x6E9 JUMP JUMPDEST POP SWAP1 JUMP JUMPDEST PUSH2 0x70B SWAP2 SWAP1 JUMPDEST DUP1 DUP3 GT ISZERO PUSH2 0x707 JUMPI PUSH1 0x0 DUP2 PUSH1 0x0 SWAP1 SSTORE POP PUSH1 0x1 ADD PUSH2 0x6EF JUMP JUMPDEST POP SWAP1 JUMP JUMPDEST SWAP1 JUMP INVALID LOG2 PUSH6 0x627A7A723158 KECCAK256 0xD7 0xDE 0xD0 MSIZE PUSH23 0x6B80FA01B390D27425D6E3181709E786DBBB0117FC8151 XOR DUP2 0xED DUP7 PUSH5 0x736F6C6343 STOP SDIV GT STOP ORIGIN "
				},
				"gasEstimates": {
					"creation": {
						"codeDepositCost": "371800",
						"executionCost": "411",
						"totalCost": "372211"
					},
					"external": {
						"getprecedents(uint256)": "infinite",
						"isLastStep(uint256)": "2124",
						"lastSteps(uint256)": "1141",
						"newStep(uint256,uint256[])": "infinite",
						"steps(uint256)": "2123",
						"totalSteps()": "1027"
					}
				},
				"methodIdentifiers": {
					"getprecedents(uint256)": "97add3a5",
					"isLastStep(uint256)": "6f0e823d",
					"lastSteps(uint256)": "3b37986e",
					"newStep(uint256,uint256[])": "5f63690c",
					"steps(uint256)": "7217e0b9",
					"totalSteps()": "6931b3ae"
				}
			},
			"storageLayout": {
				"storage": [
					{
						"astId": 17,
						"contract": "example-code.sol:SupplyChain",
						"label": "steps",
						"offset": 0,
						"slot": "0",
						"type": "t_mapping(t_uint256,t_struct(Step)13_storage)"
					},
					{
						"astId": 19,
						"contract": "example-code.sol:SupplyChain",
						"label": "totalSteps",
						"offset": 0,
						"slot": "1",
						"type": "t_uint256"
					},
					{
						"astId": 23,
						"contract": "example-code.sol:SupplyChain",
						"label": "lastSteps",
						"offset": 0,
						"slot": "2",
						"type": "t_mapping(t_uint256,t_uint256)"
					}
				],
				"types": {
					"t_address": {
						"encoding": "inplace",
						"label": "address",
						"numberOfBytes": "20"
					},
					"t_array(t_uint256)dyn_storage": {
						"base": "t_uint256",
						"encoding": "dynamic_array",
						"label": "uint256[]",
						"numberOfBytes": "32"
					},
					"t_mapping(t_uint256,t_struct(Step)13_storage)": {
						"encoding": "mapping",
						"key": "t_uint256",
						"label": "mapping(uint256 => struct SupplyChain.Step)",
						"numberOfBytes": "32",
						"value": "t_struct(Step)13_storage"
					},
					"t_mapping(t_uint256,t_uint256)": {
						"encoding": "mapping",
						"key": "t_uint256",
						"label": "mapping(uint256 => uint256)",
						"numberOfBytes": "32",
						"value": "t_uint256"
					},
					"t_struct(Step)13_storage": {
						"encoding": "inplace",
						"label": "struct SupplyChain.Step",
						"members": [
							{
								"astId": 7,
								"contract": "example-code.sol:SupplyChain",
								"label": "creator",
								"offset": 0,
								"slot": "0",
								"type": "t_address"
							},
							{
								"astId": 9,
								"contract": "example-code.sol:SupplyChain",
								"label": "item",
								"offset": 0,
								"slot": "1",
								"type": "t_uint256"
							},
							{
								"astId": 12,
								"contract": "example-code.sol:SupplyChain",
								"label": "precedents",
								"offset": 0,
								"slot": "2",
								"type": "t_array(t_uint256)dyn_storage"
							}
						],
						"numberOfBytes": "96"
					},
					"t_uint256": {
						"encoding": "inplace",
						"label": "uint256",
						"numberOfBytes": "32"
					}
				}
			},
			"userdoc": {
				"methods": {
					"getprecedents(uint256)": {
						"notice": "A method to retrieve the precedents of a step."
					},
					"isLastStep(uint256)": {
						"notice": "A method to verify whether a step is the last of an  item."
					},
					"newStep(uint256,uint256[])": {
						"notice": "A method to create a new supply chain step. The  msg.sender is recorded as the creator of the step, which might possibly mean creator of the underlying asset as well."
					}
				},
				"notice": "Implements a basic compositional supply chain contract."
			}
		}
	}
}